{"abi":[{"type":"constructor","inputs":[{"name":"rescueDelay","type":"uint32","internalType":"uint32"},{"name":"accessToken","type":"address","internalType":"contract IERC20"}],"stateMutability":"payable"},{"type":"function","name":"FACTORY","inputs":[],"outputs":[{"name":"","type":"address","internalType":"address"}],"stateMutability":"view"},{"type":"function","name":"PROXY_BYTECODE_HASH","inputs":[],"outputs":[{"name":"","type":"bytes32","internalType":"bytes32"}],"stateMutability":"view"},{"type":"function","name":"RESCUE_DELAY","inputs":[],"outputs":[{"name":"","type":"uint256","internalType":"uint256"}],"stateMutability":"view"},{"type":"function","name":"cancel","inputs":[{"name":"immutables","type":"tuple","internalType":"struct IBaseEscrow.Immutables","components":[{"name":"orderHash","type":"bytes32","internalType":"bytes32"},{"name":"hashlock","type":"bytes32","internalType":"bytes32"},{"name":"maker","type":"uint256","internalType":"Address"},{"name":"taker","type":"uint256","internalType":"Address"},{"name":"token","type":"uint256","internalType":"Address"},{"name":"amount","type":"uint256","internalType":"uint256"},{"name":"safetyDeposit","type":"uint256","internalType":"uint256"},{"name":"timelocks","type":"uint256","internalType":"Timelocks"}]}],"outputs":[],"stateMutability":"nonpayable"},{"type":"function","name":"publicWithdraw","inputs":[{"name":"secret","type":"bytes32","internalType":"bytes32"},{"name":"immutables","type":"tuple","internalType":"struct IBaseEscrow.Immutables","components":[{"name":"orderHash","type":"bytes32","internalType":"bytes32"},{"name":"hashlock","type":"bytes32","internalType":"bytes32"},{"name":"maker","type":"uint256","internalType":"Address"},{"name":"taker","type":"uint256","internalType":"Address"},{"name":"token","type":"uint256","internalType":"Address"},{"name":"amount","type":"uint256","internalType":"uint256"},{"name":"safetyDeposit","type":"uint256","internalType":"uint256"},{"name":"timelocks","type":"uint256","internalType":"Timelocks"}]}],"outputs":[],"stateMutability":"nonpayable"},{"type":"function","name":"rescueFunds","inputs":[{"name":"token","type":"address","internalType":"address"},{"name":"amount","type":"uint256","internalType":"uint256"},{"name":"immutables","type":"tuple","internalType":"struct IBaseEscrow.Immutables","components":[{"name":"orderHash","type":"bytes32","internalType":"bytes32"},{"name":"hashlock","type":"bytes32","internalType":"bytes32"},{"name":"maker","type":"uint256","internalType":"Address"},{"name":"taker","type":"uint256","internalType":"Address"},{"name":"token","type":"uint256","internalType":"Address"},{"name":"amount","type":"uint256","internalType":"uint256"},{"name":"safetyDeposit","type":"uint256","internalType":"uint256"},{"name":"timelocks","type":"uint256","internalType":"Timelocks"}]}],"outputs":[],"stateMutability":"nonpayable"},{"type":"function","name":"withdraw","inputs":[{"name":"secret","type":"bytes32","internalType":"bytes32"},{"name":"immutables","type":"tuple","internalType":"struct IBaseEscrow.Immutables","components":[{"name":"orderHash","type":"bytes32","internalType":"bytes32"},{"name":"hashlock","type":"bytes32","internalType":"bytes32"},{"name":"maker","type":"uint256","internalType":"Address"},{"name":"taker","type":"uint256","internalType":"Address"},{"name":"token","type":"uint256","internalType":"Address"},{"name":"amount","type":"uint256","internalType":"uint256"},{"name":"safetyDeposit","type":"uint256","internalType":"uint256"},{"name":"timelocks","type":"uint256","internalType":"Timelocks"}]}],"outputs":[],"stateMutability":"nonpayable"},{"type":"event","name":"EscrowCancelled","inputs":[],"anonymous":false},{"type":"event","name":"EscrowWithdrawal","inputs":[{"name":"secret","type":"bytes32","indexed":false,"internalType":"bytes32"}],"anonymous":false},{"type":"event","name":"FundsRescued","inputs":[{"name":"token","type":"address","indexed":false,"internalType":"address"},{"name":"amount","type":"uint256","indexed":false,"internalType":"uint256"}],"anonymous":false},{"type":"error","name":"InvalidCaller","inputs":[]},{"type":"error","name":"InvalidImmutables","inputs":[]},{"type":"error","name":"InvalidSecret","inputs":[]},{"type":"error","name":"InvalidTime","inputs":[]},{"type":"error","name":"NativeTokenSendingFailure","inputs":[]},{"type":"error","name":"SafeTransferFailed","inputs":[]}],"bytecode":{"object":"0x610100601f610bb438819003918201601f19168301916001600160401b0383118484101761010e57808492604094855283398101031261010a5780519063ffffffff821680920361010a5760200151906001600160a01b038216820361010a573360c05260a0526080526e5af43d82803e903d91602b57fd5bf360205230601152763d602d80600a3d3981f3363d3d373d3d3d363d730000003060881c175f52603760092060e052604051610a9190816101238239608051816105d9015260a05181818160a30152610358015260c05181818161015b01528181610322015281816104d20152610798015260e051818181610131015281816102f801528181610465015261076e0152f35b5f80fd5b634e487b7160e01b5f52604160045260245ffdfe6080604090808252600480361015610015575f80fd5b60e05f35811c9283630af97558146105825750826323305703146104f65782632dd310001461048857826334862b6a146104305782634649088b146102555750816390d3252f146100ca575063f56cd69c1461006f575f80fd5b346100c6575f7ffffffffffffffffffffffffffffffffffffffffffffffffffffffffffffffffc3601126100c657602090517f00000000000000000000000000000000000000000000000000000000000000008152f35b5f80fd5b82346100c657610100807ffffffffffffffffffffffffffffffffffffffffffffffffffffffffffffffffc3601126100c65773ffffffffffffffffffffffffffffffffffffffff9182606435169182330361022d576055600b8592845181898237208451907f00000000000000000000000000000000000000000000000000000000000000008683015260208201527f000000000000000000000000000000000000000000000000000000000000000081520160ff8153201630036102055761019460e4356108c0565b42106101dd576101ab60a435836084358616610907565b6101b760c435336109c7565b7f6e3be9294e58d10b9c8053cfd5e09871b67e442fe394d6b0870d336b9df984a95f80a1005b8390517f6f7eac26000000000000000000000000000000000000000000000000000000008152fd5b8390517fa269484a000000000000000000000000000000000000000000000000000000008152fd5b8482517f48f5c3ed000000000000000000000000000000000000000000000000000000008152fd5b8390346100c6576101407ffffffffffffffffffffffffffffffffffffffffffffffffffffffffffffffffc3601126100c65782359273ffffffffffffffffffffffffffffffffffffffff90818516928386036100c65760243592610100807fffffffffffffffffffffffffffffffffffffffffffffffffffffffffffffffbc3601126100c6578160a43516330361040857600b60559188518160448237208851907f00000000000000000000000000000000000000000000000000000000000000008a83015260208201527f000000000000000000000000000000000000000000000000000000000000000081520160ff8153201630036103e05761012435901c7f00000000000000000000000000000000000000000000000000000000000000000142106103b957506103ac817fc4474c2790e13695f6d2b6f1d8e164290b55370f87a542fd7711abe0a1bf40ac953390610907565b82519182526020820152a1005b83517f6f7eac26000000000000000000000000000000000000000000000000000000008152fd5b5083517fa269484a000000000000000000000000000000000000000000000000000000008152fd5b8387517f48f5c3ed000000000000000000000000000000000000000000000000000000008152fd5b83346100c6575f7ffffffffffffffffffffffffffffffffffffffffffffffffffffffffffffffffc3601126100c657602090517f00000000000000000000000000000000000000000000000000000000000000008152f35b83346100c6575f7ffffffffffffffffffffffffffffffffffffffffffffffffffffffffffffffffc3601126100c6576020905173ffffffffffffffffffffffffffffffffffffffff7f0000000000000000000000000000000000000000000000000000000000000000168152f35b8390346100c65761050636610675565b92909173ffffffffffffffffffffffffffffffffffffffff606085013516330361022d5763ffffffff8185013580921c9160801c1681018091116105565742106101dd576105548383610742565b005b6011857f4e487b71000000000000000000000000000000000000000000000000000000005f525260245ffd5b84346100c65761059136610675565b9390927f70a08231000000000000000000000000000000000000000000000000000000008152338682015260208160248173ffffffffffffffffffffffffffffffffffffffff7f0000000000000000000000000000000000000000000000000000000000000000165afa90811561066b575f91610639575b501561022d5763ffffffff8185013580921c9160a01c1681018091116105565742106101dd576105548383610742565b90506020813d602011610663575b81610654602093836106d4565b810103126100c6575186610609565b3d9150610647565b83513d5f823e3d90fd5b906101207ffffffffffffffffffffffffffffffffffffffffffffffffffffffffffffffffc8301126100c6576101007fffffffffffffffffffffffffffffffffffffffffffffffffffffffffffffffdc6004359301126100c657602490565b90601f7fffffffffffffffffffffffffffffffffffffffffffffffffffffffffffffffe0910116810190811067ffffffffffffffff82111761071557604052565b7f4e487b71000000000000000000000000000000000000000000000000000000005f52604160045260245ffd5b9061075060e08201356108c0565b421015610896576040906055600b83516101009081858237208451907f00000000000000000000000000000000000000000000000000000000000000008683015260208201527f000000000000000000000000000000000000000000000000000000000000000081520160ff81532073ffffffffffffffffffffffffffffffffffffffff908116300361086d57835f5260205f20602083013503610844579161083d60c08361083560209660a07fe346f5c97a360db5188bfa5d3ec5f0583abde420c6ba4d08b6cfe61addc17105999701359080878501351690608085013516610907565b0135336109c7565b51908152a1565b600483517fabab6bd7000000000000000000000000000000000000000000000000000000008152fd5b600483517fa269484a000000000000000000000000000000000000000000000000000000008152fd5b60046040517f6f7eac26000000000000000000000000000000000000000000000000000000008152fd5b63ffffffff8160e01c9160c01c1681018091116108da5790565b7f4e487b71000000000000000000000000000000000000000000000000000000005f52601160045260245ffd5b73ffffffffffffffffffffffffffffffffffffffff169190826109305761092e92506109c7565b565b60445f91602093604051917fa9059cbb0000000000000000000000000000000000000000000000000000000083526004830152602482015282855af190816109a5575b501561097b57565b60046040517ffb7f5079000000000000000000000000000000000000000000000000000000008152fd5b90503d156109bf575060015f5114601f3d11165b5f610973565b3b15156109b9565b5f80809381935af13d15610a56573d67ffffffffffffffff81116107155760405190610a1b60207fffffffffffffffffffffffffffffffffffffffffffffffffffffffffffffffe0601f84011601836106d4565b81525f60203d92013e5b15610a2c57565b60046040517f8a0332d5000000000000000000000000000000000000000000000000000000008152fd5b610a2556fea2646970667358221220d184b0411eb6cbbfbb11a66656ad39fced78e645a9968ce357b882b12cf6337164736f6c63430008170033","linkReferences":{}},"methodIdentifiers":{"FACTORY()":"2dd31000","PROXY_BYTECODE_HASH()":"34862b6a","RESCUE_DELAY()":"f56cd69c","cancel((bytes32,bytes32,uint256,uint256,uint256,uint256,uint256,uint256))":"90d3252f","publicWithdraw(bytes32,(bytes32,bytes32,uint256,uint256,uint256,uint256,uint256,uint256))":"0af97558","rescueFunds(address,uint256,(bytes32,bytes32,uint256,uint256,uint256,uint256,uint256,uint256))":"4649088b","withdraw(bytes32,(bytes32,bytes32,uint256,uint256,uint256,uint256,uint256,uint256))":"23305703"},"id":3}