{"abi":[{"type":"constructor","inputs":[{"name":"rescueDelay","type":"uint32","internalType":"uint32"},{"name":"accessToken","type":"address","internalType":"contract IERC20"}],"stateMutability":"payable"},{"type":"function","name":"FACTORY","inputs":[],"outputs":[{"name":"","type":"address","internalType":"address"}],"stateMutability":"view"},{"type":"function","name":"PROXY_BYTECODE_HASH","inputs":[],"outputs":[{"name":"","type":"bytes32","internalType":"bytes32"}],"stateMutability":"view"},{"type":"function","name":"RESCUE_DELAY","inputs":[],"outputs":[{"name":"","type":"uint256","internalType":"uint256"}],"stateMutability":"view"},{"type":"function","name":"cancel","inputs":[{"name":"immutables","type":"tuple","internalType":"struct IBaseEscrow.Immutables","components":[{"name":"orderHash","type":"bytes32","internalType":"bytes32"},{"name":"hashlock","type":"bytes32","internalType":"bytes32"},{"name":"maker","type":"uint256","internalType":"Address"},{"name":"taker","type":"uint256","internalType":"Address"},{"name":"token","type":"uint256","internalType":"Address"},{"name":"amount","type":"uint256","internalType":"uint256"},{"name":"safetyDeposit","type":"uint256","internalType":"uint256"},{"name":"timelocks","type":"uint256","internalType":"Timelocks"}]}],"outputs":[],"stateMutability":"nonpayable"},{"type":"function","name":"decodeTimelocks","inputs":[{"name":"immutables","type":"tuple","internalType":"struct IBaseEscrow.Immutables","components":[{"name":"orderHash","type":"bytes32","internalType":"bytes32"},{"name":"hashlock","type":"bytes32","internalType":"bytes32"},{"name":"maker","type":"uint256","internalType":"Address"},{"name":"taker","type":"uint256","internalType":"Address"},{"name":"token","type":"uint256","internalType":"Address"},{"name":"amount","type":"uint256","internalType":"uint256"},{"name":"safetyDeposit","type":"uint256","internalType":"uint256"},{"name":"timelocks","type":"uint256","internalType":"Timelocks"}]}],"outputs":[{"name":"srcWithdrawal","type":"uint256","internalType":"uint256"},{"name":"srcPublicWithdrawal","type":"uint256","internalType":"uint256"},{"name":"srcCancellation","type":"uint256","internalType":"uint256"},{"name":"srcPublicCancellation","type":"uint256","internalType":"uint256"},{"name":"currentTimestamp","type":"uint256","internalType":"uint256"}],"stateMutability":"view"},{"type":"function","name":"publicCancel","inputs":[{"name":"immutables","type":"tuple","internalType":"struct IBaseEscrow.Immutables","components":[{"name":"orderHash","type":"bytes32","internalType":"bytes32"},{"name":"hashlock","type":"bytes32","internalType":"bytes32"},{"name":"maker","type":"uint256","internalType":"Address"},{"name":"taker","type":"uint256","internalType":"Address"},{"name":"token","type":"uint256","internalType":"Address"},{"name":"amount","type":"uint256","internalType":"uint256"},{"name":"safetyDeposit","type":"uint256","internalType":"uint256"},{"name":"timelocks","type":"uint256","internalType":"Timelocks"}]}],"outputs":[],"stateMutability":"nonpayable"},{"type":"function","name":"publicWithdraw","inputs":[{"name":"secret","type":"bytes32","internalType":"bytes32"},{"name":"immutables","type":"tuple","internalType":"struct IBaseEscrow.Immutables","components":[{"name":"orderHash","type":"bytes32","internalType":"bytes32"},{"name":"hashlock","type":"bytes32","internalType":"bytes32"},{"name":"maker","type":"uint256","internalType":"Address"},{"name":"taker","type":"uint256","internalType":"Address"},{"name":"token","type":"uint256","internalType":"Address"},{"name":"amount","type":"uint256","internalType":"uint256"},{"name":"safetyDeposit","type":"uint256","internalType":"uint256"},{"name":"timelocks","type":"uint256","internalType":"Timelocks"}]}],"outputs":[],"stateMutability":"nonpayable"},{"type":"function","name":"rescueFunds","inputs":[{"name":"token","type":"address","internalType":"address"},{"name":"amount","type":"uint256","internalType":"uint256"},{"name":"immutables","type":"tuple","internalType":"struct IBaseEscrow.Immutables","components":[{"name":"orderHash","type":"bytes32","internalType":"bytes32"},{"name":"hashlock","type":"bytes32","internalType":"bytes32"},{"name":"maker","type":"uint256","internalType":"Address"},{"name":"taker","type":"uint256","internalType":"Address"},{"name":"token","type":"uint256","internalType":"Address"},{"name":"amount","type":"uint256","internalType":"uint256"},{"name":"safetyDeposit","type":"uint256","internalType":"uint256"},{"name":"timelocks","type":"uint256","internalType":"Timelocks"}]}],"outputs":[],"stateMutability":"nonpayable"},{"type":"function","name":"validatePublicWithdrawConditions","inputs":[{"name":"secret","type":"bytes32","internalType":"bytes32"},{"name":"immutables","type":"tuple","internalType":"struct IBaseEscrow.Immutables","components":[{"name":"orderHash","type":"bytes32","internalType":"bytes32"},{"name":"hashlock","type":"bytes32","internalType":"bytes32"},{"name":"maker","type":"uint256","internalType":"Address"},{"name":"taker","type":"uint256","internalType":"Address"},{"name":"token","type":"uint256","internalType":"Address"},{"name":"amount","type":"uint256","internalType":"uint256"},{"name":"safetyDeposit","type":"uint256","internalType":"uint256"},{"name":"timelocks","type":"uint256","internalType":"Timelocks"}]}],"outputs":[{"name":"isValidSecret","type":"bool","internalType":"bool"},{"name":"isAfterPublicWithdrawal","type":"bool","internalType":"bool"},{"name":"isBeforeCancellation","type":"bool","internalType":"bool"},{"name":"errorMessage","type":"string","internalType":"string"}],"stateMutability":"view"},{"type":"function","name":"validateWithdrawConditions","inputs":[{"name":"secret","type":"bytes32","internalType":"bytes32"},{"name":"immutables","type":"tuple","internalType":"struct IBaseEscrow.Immutables","components":[{"name":"orderHash","type":"bytes32","internalType":"bytes32"},{"name":"hashlock","type":"bytes32","internalType":"bytes32"},{"name":"maker","type":"uint256","internalType":"Address"},{"name":"taker","type":"uint256","internalType":"Address"},{"name":"token","type":"uint256","internalType":"Address"},{"name":"amount","type":"uint256","internalType":"uint256"},{"name":"safetyDeposit","type":"uint256","internalType":"uint256"},{"name":"timelocks","type":"uint256","internalType":"Timelocks"}]}],"outputs":[{"name":"isTaker","type":"bool","internalType":"bool"},{"name":"isValidSecret","type":"bool","internalType":"bool"},{"name":"isAfterWithdrawal","type":"bool","internalType":"bool"},{"name":"isBeforeCancellation","type":"bool","internalType":"bool"},{"name":"errorMessage","type":"string","internalType":"string"}],"stateMutability":"view"},{"type":"function","name":"withdraw","inputs":[{"name":"secret","type":"bytes32","internalType":"bytes32"},{"name":"immutables","type":"tuple","internalType":"struct IBaseEscrow.Immutables","components":[{"name":"orderHash","type":"bytes32","internalType":"bytes32"},{"name":"hashlock","type":"bytes32","internalType":"bytes32"},{"name":"maker","type":"uint256","internalType":"Address"},{"name":"taker","type":"uint256","internalType":"Address"},{"name":"token","type":"uint256","internalType":"Address"},{"name":"amount","type":"uint256","internalType":"uint256"},{"name":"safetyDeposit","type":"uint256","internalType":"uint256"},{"name":"timelocks","type":"uint256","internalType":"Timelocks"}]}],"outputs":[],"stateMutability":"nonpayable"},{"type":"function","name":"withdrawTo","inputs":[{"name":"secret","type":"bytes32","internalType":"bytes32"},{"name":"target","type":"address","internalType":"address"},{"name":"immutables","type":"tuple","internalType":"struct IBaseEscrow.Immutables","components":[{"name":"orderHash","type":"bytes32","internalType":"bytes32"},{"name":"hashlock","type":"bytes32","internalType":"bytes32"},{"name":"maker","type":"uint256","internalType":"Address"},{"name":"taker","type":"uint256","internalType":"Address"},{"name":"token","type":"uint256","internalType":"Address"},{"name":"amount","type":"uint256","internalType":"uint256"},{"name":"safetyDeposit","type":"uint256","internalType":"uint256"},{"name":"timelocks","type":"uint256","internalType":"Timelocks"}]}],"outputs":[],"stateMutability":"nonpayable"},{"type":"event","name":"EscrowCancelled","inputs":[],"anonymous":false},{"type":"event","name":"EscrowWithdrawal","inputs":[{"name":"secret","type":"bytes32","indexed":false,"internalType":"bytes32"}],"anonymous":false},{"type":"event","name":"FundsRescued","inputs":[{"name":"token","type":"address","indexed":false,"internalType":"address"},{"name":"amount","type":"uint256","indexed":false,"internalType":"uint256"}],"anonymous":false},{"type":"error","name":"InvalidCaller","inputs":[]},{"type":"error","name":"InvalidImmutables","inputs":[]},{"type":"error","name":"InvalidSecret","inputs":[]},{"type":"error","name":"InvalidTime","inputs":[]},{"type":"error","name":"NativeTokenSendingFailure","inputs":[]},{"type":"error","name":"SafeTransferFailed","inputs":[]}],"bytecode":{"object":"0x610100601f61111438819003918201601f19168301916001600160401b038311848410176100eb5780849260409485528339810103126100e75780519063ffffffff82168092036100e75760200151906001600160a01b03821682036100e7573360c05260a0526080526e5af43d82803e903d91602b57fd5bf360205230601152763d602d80600a3d3981f3363d3d373d3d3d363d730000003060881c175f52603760092060e0526040516110149081610100823960805181818161017901526109cc015260a05181818160d8015261061f015260c05181610898015260e051816106dd0152f35b5f80fd5b634e487b7160e01b5f52604160045260245ffdfe604060808152600480361015610013575f80fd5b60e0905f35821c918263068c80f714610b4d5782630af975581461096d57826323305703146108bc5782632dd310001461084e578263348600181461070057826334862b6a146106a85782634649088b146105885782636c10c0c8146103e25782637115850f146102f05750816390d3252f14610293578163daff233e146100ff575063f56cd69c146100a4575f80fd5b346100fb575f7ffffffffffffffffffffffffffffffffffffffffffffffffffffffffffffffffc3601126100fb57602090517f00000000000000000000000000000000000000000000000000000000000000008152f35b5f80fd5b82346100fb576101007ffffffffffffffffffffffffffffffffffffffffffffffffffffffffffffffffc3601126100fb5773ffffffffffffffffffffffffffffffffffffffff9080517f70a082310000000000000000000000000000000000000000000000000000000081523384820152602081602481867f0000000000000000000000000000000000000000000000000000000000000000165afa908115610289575f91610257575b501561022f576101ba60e435610e70565b4210610207576101d560a43560443584166084358516610e8a565b6101e160c43533610f4a565b7f6e3be9294e58d10b9c8053cfd5e09871b67e442fe394d6b0870d336b9df984a95f80a1005b9050517f6f7eac26000000000000000000000000000000000000000000000000000000008152fd5b9050517f48f5c3ed000000000000000000000000000000000000000000000000000000008152fd5b90506020813d602011610281575b8161027260209383610ce6565b810103126100fb5751846101a9565b3d9150610265565b82513d5f823e3d90fd5b82346100fb576101007ffffffffffffffffffffffffffffffffffffffffffffffffffffffffffffffffc3601126100fb5773ffffffffffffffffffffffffffffffffffffffff908160643516330361022f576101ba60e435610e56565b8390346100fb5761035d61030336610bc6565b92905f5260205f206020840135149201359261032761032185610e3c565b94610e56565b429485109410836103615761033a610dbf565b915b80519586958652156020860152840152608060608401526080830190610c25565b0390f35b84156103c757815161037281610c81565b602b81527f546f6f206561726c79202d206265666f7265207075626c69632077697468647260208201527f6177616c2077696e646f77000000000000000000000000000000000000000000838201529161033c565b806103da576103d4610d60565b9161033c565b6103d4610d27565b5082346100fb576101407ffffffffffffffffffffffffffffffffffffffffffffffffffffffffffffffffc3601126100fb5781359160243573ffffffffffffffffffffffffffffffffffffffff9182821682036100fb576101007fffffffffffffffffffffffffffffffffffffffffffffffffffffffffffffffbc3601126100fb578260a435163303610561576101243561047c81610df8565b42106105395761048b90610e56565b42101561051257845f5260205f20606435036104eb577fe346f5c97a360db5188bfa5d3ec5f0583abde420c6ba4d08b6cfe61addc17105602086866104d760e4358760c4358a16610e8a565b6104e46101043533610f4a565b51908152a1005b83517fabab6bd7000000000000000000000000000000000000000000000000000000008152fd5b83517f6f7eac26000000000000000000000000000000000000000000000000000000008152fd5b5083517f6f7eac26000000000000000000000000000000000000000000000000000000008152fd5b83517f48f5c3ed000000000000000000000000000000000000000000000000000000008152fd5b8390346100fb576101407ffffffffffffffffffffffffffffffffffffffffffffffffffffffffffffffffc3601126100fb5782359273ffffffffffffffffffffffffffffffffffffffff90818516928386036100fb57602435926101007fffffffffffffffffffffffffffffffffffffffffffffffffffffffffffffffbc3601126100fb5760a4351633036106805761012435901c7f00000000000000000000000000000000000000000000000000000000000000000142106105125750610673817fc4474c2790e13695f6d2b6f1d8e164290b55370f87a542fd7711abe0a1bf40ac953390610e8a565b82519182526020820152a1005b5083517f48f5c3ed000000000000000000000000000000000000000000000000000000008152fd5b83346100fb575f7ffffffffffffffffffffffffffffffffffffffffffffffffffffffffffffffffc3601126100fb57602090517f00000000000000000000000000000000000000000000000000000000000000008152f35b8390346100fb5761035d61071336610bc6565b93909273ffffffffffffffffffffffffffffffffffffffff6060860135163314935f5260205f206020860135149401359061075661075083610df8565b92610e56565b42928310921090846107c057805161076d81610cca565b600d81527f4e6f74207468652074616b6572000000000000000000000000000000000000006020820152925b8151968796875260208701521590850152606084015260a0608084015260a0830190610c25565b856107d3576107cd610dbf565b92610799565b82156108395780516107e481610c81565b602481527f546f6f206561726c79202d206265666f7265207769746864726177616c20776960208201527f6e646f77000000000000000000000000000000000000000000000000000000008282015292610799565b81610846576107cd610d60565b6107cd610d27565b83346100fb575f7ffffffffffffffffffffffffffffffffffffffffffffffffffffffffffffffffc3601126100fb576020905173ffffffffffffffffffffffffffffffffffffffff7f0000000000000000000000000000000000000000000000000000000000000000168152f35b8390346100fb576108cc36610bc6565b91909373ffffffffffffffffffffffffffffffffffffffff91826060850135163303610680578301356108fe81610df8565b42106105395761090d90610e56565b42101561051257845f5260205f206020840135036104eb577fe346f5c97a360db5188bfa5d3ec5f0583abde420c6ba4d08b6cfe61addc17105602086866104e460c08861096560a08201353360808401358c16610e8a565b013533610f4a565b9150346100fb5761097d36610bc6565b93909173ffffffffffffffffffffffffffffffffffffffff908251947f70a0823100000000000000000000000000000000000000000000000000000000865233828701526020958681602481877f0000000000000000000000000000000000000000000000000000000000000000165afa908115610b43575f91610b16575b5015610aee57860135610a0e81610e3c565b4210610ac657610a1d90610e56565b421015610a9f57835f52845f208587013503610a78575060c0856109656104e49360a07fe346f5c97a360db5188bfa5d3ec5f0583abde420c6ba4d08b6cfe61addc17105990135908060608501351690608085013516610e8a565b82517fabab6bd7000000000000000000000000000000000000000000000000000000008152fd5b82517f6f7eac26000000000000000000000000000000000000000000000000000000008152fd5b5082517f6f7eac26000000000000000000000000000000000000000000000000000000008152fd5b5082517f48f5c3ed000000000000000000000000000000000000000000000000000000008152fd5b90508681813d8311610b3c575b610b2d8183610ce6565b810103126100fb57515f6109fc565b503d610b23565b85513d5f823e3d90fd5b83346100fb576101007ffffffffffffffffffffffffffffffffffffffffffffffffffffffffffffffffc3601126100fb5760a09060e43590610b8e82610df8565b91610b9881610e3c565b91610bab610ba583610e56565b92610e70565b92815194855260208501528301526060820152426080820152f35b906101207ffffffffffffffffffffffffffffffffffffffffffffffffffffffffffffffffc8301126100fb576101007fffffffffffffffffffffffffffffffffffffffffffffffffffffffffffffffdc6004359301126100fb57602490565b91908251928382525f5b848110610c6d5750507fffffffffffffffffffffffffffffffffffffffffffffffffffffffffffffffe0601f845f6020809697860101520116010190565b602081830181015184830182015201610c2f565b6060810190811067ffffffffffffffff821117610c9d57604052565b7f4e487b71000000000000000000000000000000000000000000000000000000005f52604160045260245ffd5b6040810190811067ffffffffffffffff821117610c9d57604052565b90601f7fffffffffffffffffffffffffffffffffffffffffffffffffffffffffffffffe0910116810190811067ffffffffffffffff821117610c9d57604052565b60405190610d3482610cca565b601282527f416c6c20636f6e646974696f6e73206d657400000000000000000000000000006020830152565b60405190610d6d82610c81565b602482527f6e646f77000000000000000000000000000000000000000000000000000000006040837f546f6f206c617465202d2061667465722063616e63656c6c6174696f6e20776960208201520152565b60405190610dcc82610cca565b600e82527f496e76616c6964207365637265740000000000000000000000000000000000006020830152565b63ffffffff8160e01c91168101809111610e0f5790565b7f4e487b71000000000000000000000000000000000000000000000000000000005f52601160045260245ffd5b63ffffffff8160e01c9160201c168101809111610e0f5790565b63ffffffff8160e01c9160401c168101809111610e0f5790565b63ffffffff8160e01c9160601c168101809111610e0f5790565b73ffffffffffffffffffffffffffffffffffffffff16919082610eb357610eb19250610f4a565b565b60445f91602093604051917fa9059cbb0000000000000000000000000000000000000000000000000000000083526004830152602482015282855af19081610f28575b5015610efe57565b60046040517ffb7f5079000000000000000000000000000000000000000000000000000000008152fd5b90503d15610f42575060015f5114601f3d11165b5f610ef6565b3b1515610f3c565b5f80809381935af13d15610fd9573d67ffffffffffffffff8111610c9d5760405190610f9e60207fffffffffffffffffffffffffffffffffffffffffffffffffffffffffffffffe0601f8401160183610ce6565b81525f60203d92013e5b15610faf57565b60046040517f8a0332d5000000000000000000000000000000000000000000000000000000008152fd5b610fa856fea2646970667358221220a205b0ccc8adc1006dc14a58e5bc53de6dd29712ff56e82042c285863360cb2364736f6c63430008170033","linkReferences":{}},"methodIdentifiers":{"FACTORY()":"2dd31000","PROXY_BYTECODE_HASH()":"34862b6a","RESCUE_DELAY()":"f56cd69c","cancel((bytes32,bytes32,uint256,uint256,uint256,uint256,uint256,uint256))":"90d3252f","decodeTimelocks((bytes32,bytes32,uint256,uint256,uint256,uint256,uint256,uint256))":"068c80f7","publicCancel((bytes32,bytes32,uint256,uint256,uint256,uint256,uint256,uint256))":"daff233e","publicWithdraw(bytes32,(bytes32,bytes32,uint256,uint256,uint256,uint256,uint256,uint256))":"0af97558","rescueFunds(address,uint256,(bytes32,bytes32,uint256,uint256,uint256,uint256,uint256,uint256))":"4649088b","validatePublicWithdrawConditions(bytes32,(bytes32,bytes32,uint256,uint256,uint256,uint256,uint256,uint256))":"7115850f","validateWithdrawConditions(bytes32,(bytes32,bytes32,uint256,uint256,uint256,uint256,uint256,uint256))":"34860018","withdraw(bytes32,(bytes32,bytes32,uint256,uint256,uint256,uint256,uint256,uint256))":"23305703","withdrawTo(bytes32,address,(bytes32,bytes32,uint256,uint256,uint256,uint256,uint256,uint256))":"6c10c0c8"},"id":6}